:1000000019C056C055C0FCC053C052C051C050C0EA
:100010004FC04EC04DC04CC04BC0C6C049C048C008
:1000200047C046C045C044C043C042C041C094C060
:100030003FC03EC011241FBECFEFCDBFDFE3DEBF08
:100040001FE3A0E0BFE3EEE9F2E002C005900D92ED
:10005000AA30B107D9F72FE3AAE0BFE301C01D9290
:10006000AE30B207E1F7E0E4FAE082E0808311828B
:100070008FEF9FEF8487958712861386A0E0B4E008
:1000800080E119968C93199781E054968C9385831F
:1000900080818160808384E080932104E0E0F8E047
:1000A00084E790E08087918780E48683E0D0F5C084
:1000B000A7CF2091050825FD0BC080930C3F90939E
:1000C0000D3F8091050880628093050881E00895C6
:1000D00080E00895CF93DF93FC01EB01CB016AE050
:1000E00070E0C7D09B01805D8283CE0164E670E042
:1000F000C0D04AE0469FC001479F900D1124281BA5
:10010000390B205D2183605D6083DF91CF9108957D
:100110000F931F93CF93DF93EC0180910A3F90914F
:100120000B3F0097A1F008E210E0B801A2D080E0F8
:100130009FE3D0DFCE01B8019CD084E09FE3CADF0B
:1001400080E09FE3DF91CF911F910F91B2CFDF91BC
:10015000CF911F910F9108951F920F920FB60F929A
:1001600011248F939F93EF93FF93E0910C3FF091B5
:100170000D3F8081882391F0CF01019680930C3F41
:1001800090930D3F808180930208FF91EF919F91A2
:100190008F910F900FBE0F901F90189580910508BA
:1001A0008F7D80930508F1CF1F920F920FB60F92AB
:1001B00011242F933F934F935F936F937F938F936C
:1001C0009F93AF93BF93EF93FF9381E08093460A91
:1001D00090E080E09DDF10920A3F10920B3FFF916C
:1001E000EF91BF91AF919F918F917F916F915F91AF
:1001F0004F913F912F910F900FBE0F901F90189528
:100200001F920F920FB60F9211242F933F934F938B
:100210005F936F937F938F939F93AF93BF93EF936E
:10022000FF9380914A0A90914B0A10924A0A1092C9
:100230004B0A20E1209309042091080424FF15C0F3
:1002400080930A3F90930B3FFF91EF91BF91AF9145
:100250009F918F917F916F915F914F913F912F91DE
:100260000F900FBE0F901F90189552DFEDCF78942E
:10027000FFCFAA1BBB1B51E107C0AA1FBB1FA617BC
:10028000B70710F0A61BB70B881F991F5A95A9F73F
:0E02900080959095BC01CD010895F894FFCFA4
:0A029E00303030203030300D0A00FF
:00000001FF
