:1000000019C037C036C0DDC134C033C032C031C0C2
:100010005CC12FC02EC02DC02CC02BC02AC029C04F
:1000200028C027C026C025C024C023C022C021C0AC
:1000300020C01FC011241FBECFEFCDBFDFE3DEBF46
:100040002FE3A0E0BFE301C01D92A730B207E1F7A4
:10005000E0E0FAE083E896E086A397A381E0828758
:10006000808380E88093010485E0809350005FD214
:100070008FC2C6CF0F931F93CF93DF9300D000D0D2
:10008000CDB7DEB7DC010091948510919585209164
:1000900096853091978509831A832B833C83262F7D
:1000A000062E000C330BF90186E0F595E7958A954D
:1000B000E1F7E37081E090E08C0F9D1F8E0F911DA2
:1000C000FC0180818C93F90194E0F595E7959A9570
:1000D000E1F7E37081E090E08C0F9D1F8E0F911D82
:1000E000FC01808111968C93119735952795359554
:1000F00027952370E1E0F0E0EC0FFD1FE20FF11D0A
:10010000808112968C9312976370E1E0F0E0EC0F1F
:10011000FD1FE60FF11D808113968C931397CD017F
:1001200004962496CDBFDEBFDF91CF911F910F9132
:100130000895FC013896262F062E000C330B40EA5A
:1001400060FD48E8DC014D93CD01B90175956795D7
:10015000AE17BF0781F70895CF93FC01C42F8DE53B
:10016000808380E181838EEF828388E2838386E5CA
:1001700084839091003F81E089278093003F88E34A
:10018000913009F088EC8583CF01069673DF6C2FE0
:1001900071DFFC0185E68083818380E882838EE0C5
:1001A0008383CF910895CF92DF92EF92FF92CF9306
:1001B000DF9300D000D0CDB7DEB7FC0183E58083AC
:1001C00088E1818384EF828330E86303B0011124E6
:1001D000042E000C550B5061642B752BC090988534
:1001E000D0909985E0909A85F0909B85C982DA82BB
:1001F000EB82FC8233966130710581F0DB01A370E4
:10020000BB2781E090E08C0F9D1FA80FB91F8C9138
:1002100081937595679575956795EDCF022E000CC6
:10022000330B3160C982DA82EB82FC8221303105E6
:1002300081F0D901A370BB2781E090E08C0F9D1F56
:10024000A80FB91F8C9181933595279535952795E2
:10025000EDCF87E2808380E881838CE082832496DF
:10026000CDBFDEBFDF91CF91FF90EF90DF90CF90B9
:1002700008951F93CF93DF93FC01D62FC42F88E5F9
:10028000808385E1818311EA128381E18383CF0139
:1002900004964FDF6D2F60954CDF6C2F4ADF6C2F7B
:1002A000609547DFFC0182E880838FE781831283BA
:1002B00080EA83838DE68483858380E8868385E076
:1002C0008783DF91CF911F9108951F920F920FB6F0
:1002D0000F9211242F933F934F935F936F937F93CC
:1002E0008F939F93AF93BF93EF93FF9381E080939E
:1002F0000B0A8FD08091013F8F5F8093013FFF9168
:10030000EF91BF91AF919F918F917F916F915F918D
:100310004F913F912F910F900FBE0F901F90189506
:10032000CF93DF931F92CDB7DEB7898380E094E04F
:100330002981FC01268B80E094E0FC01238B80E086
:1003400094E0FC01228B80E094E0FC01218B000012
:100350000F90DF91CF910895609322040000000078
:100360000000000000009091080493FF805C9091D1
:10037000080492FF805F9091080491FF8C5F909138
:10038000080496FF8F5F089583E0809321048EE434
:100390008093090489E0C4CF60E080E0DDDF62E0A3
:1003A000DBDF61E0D9DF982F83E080932104E8EA66
:1003B000F5E880E02191291719F08F5F8D30D1F792
:1003C00008951F920F920FB60F9211242F933F930F
:1003D0004F935F936F937F938F939F93AF93BF934D
:1003E000EF93FF93809109048E7411F088E098DFF9
:1003F000FF91EF91BF91AF919F918F917F916F91FD
:100400005F914F913F912F910F900FBE0F901F90D2
:1004100018958091033F9091043F892B31F1809191
:10042000063F87FF10C08091410A80618093410A96
:1004300080E8809305048091053F882369F081500E
:100440008093053F08958091410A8F7E8093410AF1
:1004500080E880930604EFCF8091063F982F9F732A
:1004600029F0880F990B8093063F0895E091033F90
:10047000F091043F8081803869F48091023F8823A5
:10048000C1F08181E81BF10987FDF395E093033FFB
:10049000F093043FE091033FF091043FCF010196B8
:1004A0008093033F9093043F80818093063F8111A6
:1004B00007C01092033F1092043F1092400A089523
:1004C00080FFD3CF282F082E000C330B35952795AE
:1004D0002F7321502093053F8078C5CF1092023FA3
:1004E0008091400A8111FCCF08951092053F10922F
:1004F000063F41E04093023FDC012C913FEF320F79
:10050000E0E4FAE034873EE1358737E03183119645
:100510003C912302900111242093260A3093270A4C
:10052000408302968093033F9093043F0895CF93B6
:10053000DF93CDB7DEB7C456D109CDBFDEBF789407
:1005400023DF88958091013F8C5E9091013F891354
:10055000FCCF22DF182F8C309CF7E82F880FFF0B81
:10056000E456FA4740814F3F39F064E0CE010196EE
:10057000F3DDCE010196B9DF8091013F8C5E909151
:10058000013F8913FCCF08DF1817B1F3A7DFD8CFDD
:04059000F894FFCF0D
:10059400586898A8A8D4B4DA585A5C5B10593F112B
:1005A4000D54FF0C020C0804302010C080400301DD
:0105B4000046
:00000001FF
